{
  "contractName": "MissingDiaries",
  "abi": [
    {
      "inputs": [],
      "stateMutability": "nonpayable",
      "type": "constructor"
    },
    {
      "anonymous": false,
      "inputs": [
        {
          "indexed": false,
          "internalType": "uint256",
          "name": "id",
          "type": "uint256"
        },
        {
          "indexed": false,
          "internalType": "string",
          "name": "name",
          "type": "string"
        },
        {
          "indexed": false,
          "internalType": "string",
          "name": "division",
          "type": "string"
        }
      ],
      "name": "PersonAdded",
      "type": "event"
    },
    {
      "anonymous": false,
      "inputs": [
        {
          "indexed": false,
          "internalType": "uint256",
          "name": "id",
          "type": "uint256"
        },
        {
          "indexed": false,
          "internalType": "string",
          "name": "newStatus",
          "type": "string"
        }
      ],
      "name": "StatusUpdated",
      "type": "event"
    },
    {
      "inputs": [],
      "name": "admin",
      "outputs": [
        {
          "internalType": "address",
          "name": "",
          "type": "address"
        }
      ],
      "stateMutability": "view",
      "type": "function",
      "constant": true
    },
    {
      "inputs": [],
      "name": "missingCount",
      "outputs": [
        {
          "internalType": "uint256",
          "name": "",
          "type": "uint256"
        }
      ],
      "stateMutability": "view",
      "type": "function",
      "constant": true
    },
    {
      "inputs": [
        {
          "internalType": "string",
          "name": "",
          "type": "string"
        }
      ],
      "name": "missingCountByDivision",
      "outputs": [
        {
          "internalType": "uint256",
          "name": "",
          "type": "uint256"
        }
      ],
      "stateMutability": "view",
      "type": "function",
      "constant": true
    },
    {
      "inputs": [
        {
          "internalType": "uint256",
          "name": "",
          "type": "uint256"
        }
      ],
      "name": "missingPersons",
      "outputs": [
        {
          "internalType": "uint256",
          "name": "id",
          "type": "uint256"
        },
        {
          "internalType": "string",
          "name": "name",
          "type": "string"
        },
        {
          "internalType": "uint256",
          "name": "age",
          "type": "uint256"
        },
        {
          "internalType": "uint256",
          "name": "height",
          "type": "uint256"
        },
        {
          "internalType": "string",
          "name": "status",
          "type": "string"
        },
        {
          "internalType": "string",
          "name": "description",
          "type": "string"
        },
        {
          "internalType": "string",
          "name": "division",
          "type": "string"
        },
        {
          "internalType": "string",
          "name": "contactNumber",
          "type": "string"
        }
      ],
      "stateMutability": "view",
      "type": "function",
      "constant": true
    },
    {
      "inputs": [
        {
          "internalType": "string",
          "name": "_name",
          "type": "string"
        },
        {
          "internalType": "uint256",
          "name": "_age",
          "type": "uint256"
        },
        {
          "internalType": "uint256",
          "name": "_height",
          "type": "uint256"
        },
        {
          "internalType": "string",
          "name": "_description",
          "type": "string"
        },
        {
          "internalType": "string",
          "name": "_division",
          "type": "string"
        },
        {
          "internalType": "string",
          "name": "_contactNumber",
          "type": "string"
        }
      ],
      "name": "addPerson",
      "outputs": [],
      "stateMutability": "nonpayable",
      "type": "function"
    },
    {
      "inputs": [
        {
          "internalType": "uint256",
          "name": "_personId",
          "type": "uint256"
        },
        {
          "internalType": "string",
          "name": "_newStatus",
          "type": "string"
        }
      ],
      "name": "updateStatus",
      "outputs": [],
      "stateMutability": "nonpayable",
      "type": "function"
    },
    {
      "inputs": [
        {
          "internalType": "string",
          "name": "_division",
          "type": "string"
        }
      ],
      "name": "getMissingCountByDivision",
      "outputs": [
        {
          "internalType": "uint256",
          "name": "",
          "type": "uint256"
        }
      ],
      "stateMutability": "view",
      "type": "function",
      "constant": true
    },
    {
      "inputs": [
        {
          "internalType": "string",
          "name": "_name",
          "type": "string"
        }
      ],
      "name": "searchByName",
      "outputs": [
        {
          "components": [
            {
              "internalType": "uint256",
              "name": "id",
              "type": "uint256"
            },
            {
              "internalType": "string",
              "name": "name",
              "type": "string"
            },
            {
              "internalType": "uint256",
              "name": "age",
              "type": "uint256"
            },
            {
              "internalType": "uint256",
              "name": "height",
              "type": "uint256"
            },
            {
              "internalType": "string",
              "name": "status",
              "type": "string"
            },
            {
              "internalType": "string",
              "name": "description",
              "type": "string"
            },
            {
              "internalType": "string",
              "name": "division",
              "type": "string"
            },
            {
              "internalType": "string",
              "name": "contactNumber",
              "type": "string"
            }
          ],
          "internalType": "struct MissingDiaries.MissingPerson[]",
          "name": "",
          "type": "tuple[]"
        }
      ],
      "stateMutability": "view",
      "type": "function",
      "constant": true
    }
  ],
  "bytecode": "0x608060405234801561001057600080fd5b50336000806101000a81548173ffffffffffffffffffffffffffffffffffffffff021916908373ffffffffffffffffffffffffffffffffffffffff1602179055506119ae806100606000396000f3fe608060405234801561001057600080fd5b50600436106100885760003560e01c8063d1b34dd81161005b578063d1b34dd814610127578063ddbbc35c14610143578063f5a38aaf14610173578063f851a440146101aa57610088565b80634c0402421461008d5780634ce84bff146100bd57806354c079b3146100db578063c8b615da1461010b575b600080fd5b6100a760048036038101906100a29190610de6565b6101c8565b6040516100b49190610e48565b60405180910390f35b6100c56101f6565b6040516100d29190610e48565b60405180910390f35b6100f560048036038101906100f09190610de6565b6101fc565b6040516101029190610e48565b60405180910390f35b61012560048036038101906101209190610e8f565b610224565b005b610141600480360381019061013c9190610f8c565b6103ca565b005b61015d60048036038101906101589190610de6565b61052c565b60405161016a9190611204565b60405180910390f35b61018d60048036038101906101889190611226565b610933565b6040516101a198979695949392919061129d565b60405180910390f35b6101b2610c23565b6040516101bf919061137f565b60405180910390f35b6003818051602081018201805184825260208301602085012081835280955050505050506000915090505481565b60025481565b600060038260405161020e91906113d6565b9081526020016040518091039020549050919050565b600260008154809291906102379061141c565b919050555060405180610100016040528060025481526020018781526020018681526020018581526020016040518060400160405280600781526020017f6d697373696e67000000000000000000000000000000000000000000000000008152508152602001848152602001838152602001828152506001600060025481526020019081526020016000206000820151816000015560208201518160010190816102e19190611670565b506040820151816002015560608201518160030155608082015181600401908161030b9190611670565b5060a08201518160050190816103219190611670565b5060c08201518160060190816103379190611670565b5060e082015181600701908161034d9190611670565b5090505060038260405161036191906113d6565b908152602001604051809103902060008154809291906103809061141c565b91905055507f3d965559aa104be56fef3bda0cc9fad160cfb3e3d4976851e6585a45999b6e2960025487846040516103ba93929190611742565b60405180910390a1505050505050565b60008054906101000a900473ffffffffffffffffffffffffffffffffffffffff1673ffffffffffffffffffffffffffffffffffffffff163373ffffffffffffffffffffffffffffffffffffffff1614610458576040517f08c379a000000000000000000000000000000000000000000000000000000000815260040161044f906117d3565b60405180910390fd5b8080519060200120600160008481526020019081526020016000206004016040516104839190611896565b6040518091039020036104cb576040517f08c379a00000000000000000000000000000000000000000000000000000000081526004016104c2906118f9565b60405180910390fd5b806001600084815260200190815260200160002060040190816104ee9190611670565b507fdc280875b120650ffe3edf5f724f07fd086361a32c2a387fe34b495f5679e77d8282604051610520929190611919565b60405180910390a15050565b6060600060025467ffffffffffffffff81111561054c5761054b610cbb565b5b60405190808252806020026020018201604052801561058557816020015b610572610c47565b81526020019060019003908161056a5790505b509050600080600190505b6002548111610928578480519060200120600160008381526020019081526020016000206001016040516105c49190611896565b6040518091039020036109155760016000828152602001908152602001600020604051806101000160405290816000820154815260200160018201805461060a90611493565b80601f016020809104026020016040519081016040528092919081815260200182805461063690611493565b80156106835780601f1061065857610100808354040283529160200191610683565b820191906000526020600020905b81548152906001019060200180831161066657829003601f168201915b5050505050815260200160028201548152602001600382015481526020016004820180546106b090611493565b80601f01602080910402602001604051908101604052809291908181526020018280546106dc90611493565b80156107295780601f106106fe57610100808354040283529160200191610729565b820191906000526020600020905b81548152906001019060200180831161070c57829003601f168201915b5050505050815260200160058201805461074290611493565b80601f016020809104026020016040519081016040528092919081815260200182805461076e90611493565b80156107bb5780601f10610790576101008083540402835291602001916107bb565b820191906000526020600020905b81548152906001019060200180831161079e57829003601f168201915b505050505081526020016006820180546107d490611493565b80601f016020809104026020016040519081016040528092919081815260200182805461080090611493565b801561084d5780601f106108225761010080835404028352916020019161084d565b820191906000526020600020905b81548152906001019060200180831161083057829003601f168201915b5050505050815260200160078201805461086690611493565b80601f016020809104026020016040519081016040528092919081815260200182805461089290611493565b80156108df5780601f106108b4576101008083540402835291602001916108df565b820191906000526020600020905b8154815290600101906020018083116108c257829003601f168201915b5050505050815250508383815181106108fb576108fa611949565b5b602002602001018190525081806109119061141c565b9250505b80806109209061141c565b915050610590565b508192505050919050565b600160205280600052604060002060009150905080600001549080600101805461095c90611493565b80601f016020809104026020016040519081016040528092919081815260200182805461098890611493565b80156109d55780601f106109aa576101008083540402835291602001916109d5565b820191906000526020600020905b8154815290600101906020018083116109b857829003601f168201915b5050505050908060020154908060030154908060040180546109f690611493565b80601f0160208091040260200160405190810160405280929190818152602001828054610a2290611493565b8015610a6f5780601f10610a4457610100808354040283529160200191610a6f565b820191906000526020600020905b815481529060010190602001808311610a5257829003601f168201915b505050505090806005018054610a8490611493565b80601f0160208091040260200160405190810160405280929190818152602001828054610ab090611493565b8015610afd5780601f10610ad257610100808354040283529160200191610afd565b820191906000526020600020905b815481529060010190602001808311610ae057829003601f168201915b505050505090806006018054610b1290611493565b80601f0160208091040260200160405190810160405280929190818152602001828054610b3e90611493565b8015610b8b5780601f10610b6057610100808354040283529160200191610b8b565b820191906000526020600020905b815481529060010190602001808311610b6e57829003601f168201915b505050505090806007018054610ba090611493565b80601f0160208091040260200160405190810160405280929190818152602001828054610bcc90611493565b8015610c195780601f10610bee57610100808354040283529160200191610c19565b820191906000526020600020905b815481529060010190602001808311610bfc57829003601f168201915b5050505050905088565b60008054906101000a900473ffffffffffffffffffffffffffffffffffffffff1681565b60405180610100016040528060008152602001606081526020016000815260200160008152602001606081526020016060815260200160608152602001606081525090565b6000604051905090565b600080fd5b600080fd5b600080fd5b600080fd5b6000601f19601f8301169050919050565b7f4e487b7100000000000000000000000000000000000000000000000000000000600052604160045260246000fd5b610cf382610caa565b810181811067ffffffffffffffff82111715610d1257610d11610cbb565b5b80604052505050565b6000610d25610c8c565b9050610d318282610cea565b919050565b600067ffffffffffffffff821115610d5157610d50610cbb565b5b610d5a82610caa565b9050602081019050919050565b82818337600083830152505050565b6000610d89610d8484610d36565b610d1b565b905082815260208101848484011115610da557610da4610ca5565b5b610db0848285610d67565b509392505050565b600082601f830112610dcd57610dcc610ca0565b5b8135610ddd848260208601610d76565b91505092915050565b600060208284031215610dfc57610dfb610c96565b5b600082013567ffffffffffffffff811115610e1a57610e19610c9b565b5b610e2684828501610db8565b91505092915050565b6000819050919050565b610e4281610e2f565b82525050565b6000602082019050610e5d6000830184610e39565b92915050565b610e6c81610e2f565b8114610e7757600080fd5b50565b600081359050610e8981610e63565b92915050565b60008060008060008060c08789031215610eac57610eab610c96565b5b600087013567ffffffffffffffff811115610eca57610ec9610c9b565b5b610ed689828a01610db8565b9650506020610ee789828a01610e7a565b9550506040610ef889828a01610e7a565b945050606087013567ffffffffffffffff811115610f1957610f18610c9b565b5b610f2589828a01610db8565b935050608087013567ffffffffffffffff811115610f4657610f45610c9b565b5b610f5289828a01610db8565b92505060a087013567ffffffffffffffff811115610f7357610f72610c9b565b5b610f7f89828a01610db8565b9150509295509295509295565b60008060408385031215610fa357610fa2610c96565b5b6000610fb185828601610e7a565b925050602083013567ffffffffffffffff811115610fd257610fd1610c9b565b5b610fde85828601610db8565b9150509250929050565b600081519050919050565b600082825260208201905092915050565b6000819050602082019050919050565b61101d81610e2f565b82525050565b600081519050919050565b600082825260208201905092915050565b60005b8381101561105d578082015181840152602081019050611042565b60008484015250505050565b600061107482611023565b61107e818561102e565b935061108e81856020860161103f565b61109781610caa565b840191505092915050565b6000610100830160008301516110bb6000860182611014565b50602083015184820360208601526110d38282611069565b91505060408301516110e86040860182611014565b5060608301516110fb6060860182611014565b50608083015184820360808601526111138282611069565b91505060a083015184820360a086015261112d8282611069565b91505060c083015184820360c08601526111478282611069565b91505060e083015184820360e08601526111618282611069565b9150508091505092915050565b600061117a83836110a2565b905092915050565b6000602082019050919050565b600061119a82610fe8565b6111a48185610ff3565b9350836020820285016111b685611004565b8060005b858110156111f257848403895281516111d3858261116e565b94506111de83611182565b925060208a019950506001810190506111ba565b50829750879550505050505092915050565b6000602082019050818103600083015261121e818461118f565b905092915050565b60006020828403121561123c5761123b610c96565b5b600061124a84828501610e7a565b91505092915050565b600082825260208201905092915050565b600061126f82611023565b6112798185611253565b935061128981856020860161103f565b61129281610caa565b840191505092915050565b6000610100820190506112b3600083018b610e39565b81810360208301526112c5818a611264565b90506112d46040830189610e39565b6112e16060830188610e39565b81810360808301526112f38187611264565b905081810360a08301526113078186611264565b905081810360c083015261131b8185611264565b905081810360e083015261132f8184611264565b90509998505050505050505050565b600073ffffffffffffffffffffffffffffffffffffffff82169050919050565b60006113698261133e565b9050919050565b6113798161135e565b82525050565b60006020820190506113946000830184611370565b92915050565b600081905092915050565b60006113b082611023565b6113ba818561139a565b93506113ca81856020860161103f565b80840191505092915050565b60006113e282846113a5565b915081905092915050565b7f4e487b7100000000000000000000000000000000000000000000000000000000600052601160045260246000fd5b600061142782610e2f565b91507fffffffffffffffffffffffffffffffffffffffffffffffffffffffffffffffff8203611459576114586113ed565b5b600182019050919050565b7f4e487b7100000000000000000000000000000000000000000000000000000000600052602260045260246000fd5b600060028204905060018216806114ab57607f821691505b6020821081036114be576114bd611464565b5b50919050565b60008190508160005260206000209050919050565b60006020601f8301049050919050565b600082821b905092915050565b6000600883026115267fffffffffffffffffffffffffffffffffffffffffffffffffffffffffffffffff826114e9565b61153086836114e9565b95508019841693508086168417925050509392505050565b6000819050919050565b600061156d61156861156384610e2f565b611548565b610e2f565b9050919050565b6000819050919050565b61158783611552565b61159b61159382611574565b8484546114f6565b825550505050565b600090565b6115b06115a3565b6115bb81848461157e565b505050565b5b818110156115df576115d46000826115a8565b6001810190506115c1565b5050565b601f821115611624576115f5816114c4565b6115fe846114d9565b8101602085101561160d578190505b611621611619856114d9565b8301826115c0565b50505b505050565b600082821c905092915050565b600061164760001984600802611629565b1980831691505092915050565b60006116608383611636565b9150826002028217905092915050565b61167982611023565b67ffffffffffffffff81111561169257611691610cbb565b5b61169c8254611493565b6116a78282856115e3565b600060209050601f8311600181146116da57600084156116c8578287015190505b6116d28582611654565b86555061173a565b601f1984166116e8866114c4565b60005b82811015611710578489015182556001820191506020850194506020810190506116eb565b8683101561172d5784890151611729601f891682611636565b8355505b6001600288020188555050505b505050505050565b60006060820190506117576000830186610e39565b81810360208301526117698185611264565b9050818103604083015261177d8184611264565b9050949350505050565b7f4f6e6c792061646d696e2063616e207570646174652073746174757300000000600082015250565b60006117bd601c83611253565b91506117c882611787565b602082019050919050565b600060208201905081810360008301526117ec816117b0565b9050919050565b600081905092915050565b60008190508160005260206000209050919050565b6000815461182081611493565b61182a81866117f3565b94506001821660008114611845576001811461185a5761188d565b60ff198316865281151582028601935061188d565b611863856117fe565b60005b8381101561188557815481890152600182019150602081019050611866565b838801955050505b50505092915050565b60006118a28284611813565b915081905092915050565b7f53746174757320697320616c7265616479207570646174656400000000000000600082015250565b60006118e3601983611253565b91506118ee826118ad565b602082019050919050565b60006020820190508181036000830152611912816118d6565b9050919050565b600060408201905061192e6000830185610e39565b81810360208301526119408184611264565b90509392505050565b7f4e487b7100000000000000000000000000000000000000000000000000000000600052603260045260246000fdfea26469706673582212205a971e3f03b70b65b5d17f44e1dc840a11a4b9c5fafc0cb53b344926b8e6511164736f6c63430008100033",
  "immutableReferences": {},
  "source": "// SPDX-License-Identifier: GPL-3.0\npragma solidity >=0.7.0 <0.9.0;\n\ncontract MissingDiaries {\n    struct MissingPerson {\n        uint id;\n        string name;\n        uint age;\n        uint height;\n        string status; // \"missing\" or \"found\"\n        string description;\n        string division;\n        string contactNumber;\n    }\n\n    address public admin;\n    mapping(uint => MissingPerson) public missingPersons;\n    uint public missingCount;\n\n    \n    mapping(string => uint) public missingCountByDivision;\n\n    event PersonAdded(uint id, string name, string division);\n    event StatusUpdated(uint id, string newStatus);\n\n    constructor() {\n        admin = msg.sender;\n    }\n\n    function addPerson(string memory _name, uint _age, uint _height, string memory _description, string memory _division, string memory _contactNumber) public {\n        missingCount ++;\n        missingPersons[missingCount] = MissingPerson(missingCount, _name, _age, _height, \"missing\", _description, _division, _contactNumber);\n        missingCountByDivision[_division]++;\n        emit PersonAdded(missingCount, _name, _division);\n    }\n\n    function updateStatus(uint _personId, string memory _newStatus) public {\n        require(msg.sender == admin, \"Only admin can update status\");\n        require(keccak256(bytes(missingPersons[_personId].status)) != keccak256(bytes(_newStatus)), \"Status is already updated\");\n        missingPersons[_personId].status = _newStatus;\n        emit StatusUpdated(_personId, _newStatus);\n    }\n\n    \n    function getMissingCountByDivision(string memory _division) public view returns (uint) {\n        return missingCountByDivision[_division];\n    }\n\n    \n    \n    function searchByName(string memory _name) public view returns (MissingPerson[] memory) {\n        MissingPerson[] memory results = new MissingPerson[](missingCount);\n        uint counter = 0;\n        for (uint i = 1; i <= missingCount; i++) {\n            if (keccak256(bytes(missingPersons[i].name)) == keccak256(bytes(_name))) {\n                results[counter] = missingPersons[i];\n                counter++;\n            }\n        }\n        return results;\n    }\n\n}",
  "sourcePath": "/home/siam/submission/MissingDiaries/contracts/MissingDiaries.sol",
  "compiler": {
    "name": "solc",
    "version": "0.8.16+commit.07a7930e.Emscripten.clang"
  },
  "schemaVersion": "3.4.16",
  "updatedAt": "2023-12-05T06:27:19.254Z",
  "networkType": "ethereum",
  "devdoc": {
    "kind": "dev",
    "methods": {},
    "version": 1
  },
  "userdoc": {
    "kind": "user",
    "methods": {},
    "version": 1
  }
}